{
  "contractName": "ERC721Connector",
  "abi": [
    {
      "inputs": [
        {
          "internalType": "string",
          "name": "name",
          "type": "string"
        },
        {
          "internalType": "string",
          "name": "symbol",
          "type": "string"
        }
      ],
      "stateMutability": "nonpayable",
      "type": "constructor"
    },
    {
      "anonymous": false,
      "inputs": [
        {
          "indexed": true,
          "internalType": "address",
          "name": "from",
          "type": "address"
        },
        {
          "indexed": true,
          "internalType": "address",
          "name": "to",
          "type": "address"
        },
        {
          "indexed": true,
          "internalType": "uint256",
          "name": "tokenId",
          "type": "uint256"
        }
      ],
      "name": "Transfer",
      "type": "event"
    },
    {
      "inputs": [
        {
          "internalType": "address",
          "name": "_owner",
          "type": "address"
        }
      ],
      "name": "balanceOf",
      "outputs": [
        {
          "internalType": "uint256",
          "name": "",
          "type": "uint256"
        }
      ],
      "stateMutability": "view",
      "type": "function"
    },
    {
      "inputs": [],
      "name": "name",
      "outputs": [
        {
          "internalType": "string",
          "name": "",
          "type": "string"
        }
      ],
      "stateMutability": "view",
      "type": "function"
    },
    {
      "inputs": [
        {
          "internalType": "uint256",
          "name": "_tokenId",
          "type": "uint256"
        }
      ],
      "name": "ownerOf",
      "outputs": [
        {
          "internalType": "address",
          "name": "",
          "type": "address"
        }
      ],
      "stateMutability": "view",
      "type": "function"
    },
    {
      "inputs": [],
      "name": "symbol",
      "outputs": [
        {
          "internalType": "string",
          "name": "",
          "type": "string"
        }
      ],
      "stateMutability": "view",
      "type": "function"
    },
    {
      "inputs": [],
      "name": "totalSupply",
      "outputs": [
        {
          "internalType": "uint256",
          "name": "",
          "type": "uint256"
        }
      ],
      "stateMutability": "view",
      "type": "function"
    }
  ],
  "bytecode": "0x60806040523480156200001157600080fd5b5060405162000ca438038062000ca4833981810160405281019062000037919062000204565b818181600090816200004a9190620004d4565b5080600190816200005c9190620004d4565b5050505050620005bb565b6000604051905090565b600080fd5b600080fd5b600080fd5b600080fd5b6000601f19601f8301169050919050565b7f4e487b7100000000000000000000000000000000000000000000000000000000600052604160045260246000fd5b620000d08262000085565b810181811067ffffffffffffffff82111715620000f257620000f162000096565b5b80604052505050565b60006200010762000067565b9050620001158282620000c5565b919050565b600067ffffffffffffffff82111562000138576200013762000096565b5b620001438262000085565b9050602081019050919050565b60005b838110156200017057808201518184015260208101905062000153565b8381111562000180576000848401525b50505050565b60006200019d62000197846200011a565b620000fb565b905082815260208101848484011115620001bc57620001bb62000080565b5b620001c984828562000150565b509392505050565b600082601f830112620001e957620001e86200007b565b5b8151620001fb84826020860162000186565b91505092915050565b600080604083850312156200021e576200021d62000071565b5b600083015167ffffffffffffffff8111156200023f576200023e62000076565b5b6200024d85828601620001d1565b925050602083015167ffffffffffffffff81111562000271576200027062000076565b5b6200027f85828601620001d1565b9150509250929050565b600081519050919050565b7f4e487b7100000000000000000000000000000000000000000000000000000000600052602260045260246000fd5b60006002820490506001821680620002dc57607f821691505b602082108103620002f257620002f162000294565b5b50919050565b60008190508160005260206000209050919050565b60006020601f8301049050919050565b600082821b905092915050565b6000600883026200035c7fffffffffffffffffffffffffffffffffffffffffffffffffffffffffffffffff826200031d565b6200036886836200031d565b95508019841693508086168417925050509392505050565b6000819050919050565b6000819050919050565b6000620003b5620003af620003a98462000380565b6200038a565b62000380565b9050919050565b6000819050919050565b620003d18362000394565b620003e9620003e082620003bc565b8484546200032a565b825550505050565b600090565b62000400620003f1565b6200040d818484620003c6565b505050565b5b81811015620004355762000429600082620003f6565b60018101905062000413565b5050565b601f82111562000484576200044e81620002f8565b62000459846200030d565b8101602085101562000469578190505b6200048162000478856200030d565b83018262000412565b50505b505050565b600082821c905092915050565b6000620004a96000198460080262000489565b1980831691505092915050565b6000620004c4838362000496565b9150826002028217905092915050565b620004df8262000289565b67ffffffffffffffff811115620004fb57620004fa62000096565b5b620005078254620002c3565b6200051482828562000439565b600060209050601f8311600181146200054c576000841562000537578287015190505b620005438582620004b6565b865550620005b3565b601f1984166200055c86620002f8565b60005b8281101562000586578489015182556001820191506020850194506020810190506200055f565b86831015620005a65784890151620005a2601f89168262000496565b8355505b6001600288020188555050505b505050505050565b6106d980620005cb6000396000f3fe608060405234801561001057600080fd5b50600436106100575760003560e01c806306fdde031461005c57806318160ddd1461007a5780636352211e1461009857806370a08231146100c857806395d89b41146100f8575b600080fd5b610064610116565b6040516100719190610448565b60405180910390f35b6100826101a8565b60405161008f9190610483565b60405180910390f35b6100b260048036038101906100ad91906104cf565b6101b5565b6040516100bf919061053d565b60405180910390f35b6100e260048036038101906100dd9190610584565b610266565b6040516100ef9190610483565b60405180910390f35b61010061031d565b60405161010d9190610448565b60405180910390f35b606060008054610125906105e0565b80601f0160208091040260200160405190810160405280929190818152602001828054610151906105e0565b801561019e5780601f106101735761010080835404028352916020019161019e565b820191906000526020600020905b81548152906001019060200180831161018157829003601f168201915b5050505050905090565b6000600480549050905090565b6000806002600084815260200190815260200160002060009054906101000a900473ffffffffffffffffffffffffffffffffffffffff169050600073ffffffffffffffffffffffffffffffffffffffff168173ffffffffffffffffffffffffffffffffffffffff160361025d576040517f08c379a000000000000000000000000000000000000000000000000000000000815260040161025490610683565b60405180910390fd5b80915050919050565b60008073ffffffffffffffffffffffffffffffffffffffff168273ffffffffffffffffffffffffffffffffffffffff16036102d6576040517f08c379a00000000000000000000000000000000000000000000000000000000081526004016102cd90610683565b60405180910390fd5b600360008373ffffffffffffffffffffffffffffffffffffffff1673ffffffffffffffffffffffffffffffffffffffff168152602001908152602001600020549050919050565b60606001805461032c906105e0565b80601f0160208091040260200160405190810160405280929190818152602001828054610358906105e0565b80156103a55780601f1061037a576101008083540402835291602001916103a5565b820191906000526020600020905b81548152906001019060200180831161038857829003601f168201915b5050505050905090565b600081519050919050565b600082825260208201905092915050565b60005b838110156103e95780820151818401526020810190506103ce565b838111156103f8576000848401525b50505050565b6000601f19601f8301169050919050565b600061041a826103af565b61042481856103ba565b93506104348185602086016103cb565b61043d816103fe565b840191505092915050565b60006020820190508181036000830152610462818461040f565b905092915050565b6000819050919050565b61047d8161046a565b82525050565b60006020820190506104986000830184610474565b92915050565b600080fd5b6104ac8161046a565b81146104b757600080fd5b50565b6000813590506104c9816104a3565b92915050565b6000602082840312156104e5576104e461049e565b5b60006104f3848285016104ba565b91505092915050565b600073ffffffffffffffffffffffffffffffffffffffff82169050919050565b6000610527826104fc565b9050919050565b6105378161051c565b82525050565b6000602082019050610552600083018461052e565b92915050565b6105618161051c565b811461056c57600080fd5b50565b60008135905061057e81610558565b92915050565b60006020828403121561059a5761059961049e565b5b60006105a88482850161056f565b91505092915050565b7f4e487b7100000000000000000000000000000000000000000000000000000000600052602260045260246000fd5b600060028204905060018216806105f857607f821691505b60208210810361060b5761060a6105b1565b5b50919050565b7f6f776e657220717565727920666f72206e6f6e2d6578697374616e636520746f60008201527f6b656e0000000000000000000000000000000000000000000000000000000000602082015250565b600061066d6023836103ba565b915061067882610611565b604082019050919050565b6000602082019050818103600083015261069c81610660565b905091905056fea264697066735822122050ffe0beee9478389ee15752e40f66998c0d83c0aaf410fb20afe9c7443b4d7b64736f6c634300080f0033",
  "immutableReferences": {},
  "source": "// SPDX-License-Identifier: MIT\npragma solidity >=0.4.22 <0.9.0;\n\nimport './ERC721Metadata.sol';\nimport './ERC721Enumerable.sol';\n\ncontract ERC721Connector is ERC721Metadata, ERC721Enumerable {\n\n    // we deploy connector right away\n    // we want to metadata infor over\n\n    constructor(string memory name, string memory symbol) ERC721Metadata(name, symbol){\n        \n    }\n\n}",
  "sourcePath": "/Users/shahadath/projects/web3/blockchain/nft-marketplace-starter-kit/src/contracts/ERC721Connector.sol",
  "compiler": {
    "name": "solc",
    "version": "0.8.15+commit.e14f2714.Emscripten.clang"
  },
  "schemaVersion": "3.4.7",
  "updatedAt": "2022-07-03T08:11:19.662Z",
  "devdoc": {
    "kind": "dev",
    "methods": {
      "balanceOf(address)": {
        "details": "NFTs assigned to the zero address are considered invalid, and this  function throws for queries about the zero address.",
        "params": {
          "_owner": "An address for whom to query the balance"
        },
        "returns": {
          "_0": "The number of NFTs owned by `_owner`, possibly zero"
        }
      },
      "ownerOf(uint256)": {
        "details": "NFTs assigned to zero address are considered invalid, and queries  about them do throw.",
        "params": {
          "_tokenId": "The identifier for an NFT"
        },
        "returns": {
          "_0": "The address of the owner of the NFT"
        }
      }
    },
    "version": 1
  },
  "userdoc": {
    "kind": "user",
    "methods": {
      "balanceOf(address)": {
        "notice": "Count all NFTs assigned to an owner"
      },
      "ownerOf(uint256)": {
        "notice": "Find the owner of an NFT"
      }
    },
    "version": 1
  }
}