{
  "contractName": "ERC721Connector",
  "abi": [
    {
      "inputs": [
        {
          "internalType": "string",
          "name": "name",
          "type": "string"
        },
        {
          "internalType": "string",
          "name": "symbol",
          "type": "string"
        }
      ],
      "stateMutability": "nonpayable",
      "type": "constructor"
    },
    {
      "inputs": [],
      "name": "name",
      "outputs": [
        {
          "internalType": "string",
          "name": "",
          "type": "string"
        }
      ],
      "stateMutability": "view",
      "type": "function"
    },
    {
      "inputs": [],
      "name": "symbol",
      "outputs": [
        {
          "internalType": "string",
          "name": "",
          "type": "string"
        }
      ],
      "stateMutability": "view",
      "type": "function"
    }
  ],
  "bytecode": "0x60806040523480156200001157600080fd5b50604051620008b7380380620008b7833981810160405281019062000037919062000204565b818181600090816200004a9190620004d4565b5080600190816200005c9190620004d4565b5050505050620005bb565b6000604051905090565b600080fd5b600080fd5b600080fd5b600080fd5b6000601f19601f8301169050919050565b7f4e487b7100000000000000000000000000000000000000000000000000000000600052604160045260246000fd5b620000d08262000085565b810181811067ffffffffffffffff82111715620000f257620000f162000096565b5b80604052505050565b60006200010762000067565b9050620001158282620000c5565b919050565b600067ffffffffffffffff82111562000138576200013762000096565b5b620001438262000085565b9050602081019050919050565b60005b838110156200017057808201518184015260208101905062000153565b8381111562000180576000848401525b50505050565b60006200019d62000197846200011a565b620000fb565b905082815260208101848484011115620001bc57620001bb62000080565b5b620001c984828562000150565b509392505050565b600082601f830112620001e957620001e86200007b565b5b8151620001fb84826020860162000186565b91505092915050565b600080604083850312156200021e576200021d62000071565b5b600083015167ffffffffffffffff8111156200023f576200023e62000076565b5b6200024d85828601620001d1565b925050602083015167ffffffffffffffff81111562000271576200027062000076565b5b6200027f85828601620001d1565b9150509250929050565b600081519050919050565b7f4e487b7100000000000000000000000000000000000000000000000000000000600052602260045260246000fd5b60006002820490506001821680620002dc57607f821691505b602082108103620002f257620002f162000294565b5b50919050565b60008190508160005260206000209050919050565b60006020601f8301049050919050565b600082821b905092915050565b6000600883026200035c7fffffffffffffffffffffffffffffffffffffffffffffffffffffffffffffffff826200031d565b6200036886836200031d565b95508019841693508086168417925050509392505050565b6000819050919050565b6000819050919050565b6000620003b5620003af620003a98462000380565b6200038a565b62000380565b9050919050565b6000819050919050565b620003d18362000394565b620003e9620003e082620003bc565b8484546200032a565b825550505050565b600090565b62000400620003f1565b6200040d818484620003c6565b505050565b5b81811015620004355762000429600082620003f6565b60018101905062000413565b5050565b601f82111562000484576200044e81620002f8565b62000459846200030d565b8101602085101562000469578190505b6200048162000478856200030d565b83018262000412565b50505b505050565b600082821c905092915050565b6000620004a96000198460080262000489565b1980831691505092915050565b6000620004c4838362000496565b9150826002028217905092915050565b620004df8262000289565b67ffffffffffffffff811115620004fb57620004fa62000096565b5b620005078254620002c3565b6200051482828562000439565b600060209050601f8311600181146200054c576000841562000537578287015190505b620005438582620004b6565b865550620005b3565b601f1984166200055c86620002f8565b60005b8281101562000586578489015182556001820191506020850194506020810190506200055f565b86831015620005a65784890151620005a2601f89168262000496565b8355505b6001600288020188555050505b505050505050565b6102ec80620005cb6000396000f3fe608060405234801561001057600080fd5b50600436106100365760003560e01c806306fdde031461003b57806395d89b4114610059575b600080fd5b610043610077565b6040516100509190610234565b60405180910390f35b610061610109565b60405161006e9190610234565b60405180910390f35b60606000805461008690610285565b80601f01602080910402602001604051908101604052809291908181526020018280546100b290610285565b80156100ff5780601f106100d4576101008083540402835291602001916100ff565b820191906000526020600020905b8154815290600101906020018083116100e257829003601f168201915b5050505050905090565b60606001805461011890610285565b80601f016020809104026020016040519081016040528092919081815260200182805461014490610285565b80156101915780601f1061016657610100808354040283529160200191610191565b820191906000526020600020905b81548152906001019060200180831161017457829003601f168201915b5050505050905090565b600081519050919050565b600082825260208201905092915050565b60005b838110156101d55780820151818401526020810190506101ba565b838111156101e4576000848401525b50505050565b6000601f19601f8301169050919050565b60006102068261019b565b61021081856101a6565b93506102208185602086016101b7565b610229816101ea565b840191505092915050565b6000602082019050818103600083015261024e81846101fb565b905092915050565b7f4e487b7100000000000000000000000000000000000000000000000000000000600052602260045260246000fd5b6000600282049050600182168061029d57607f821691505b6020821081036102b0576102af610256565b5b5091905056fea26469706673582212208b0a6be5d29d73325271d1da7dcf7daf9b7e72d5892f5180a21b5880526dc00f64736f6c634300080f0033",
  "immutableReferences": {},
  "source": "// SPDX-License-Identifier: MIT\npragma solidity >=0.4.22 <0.9.0;\n\nimport './ERC721Metadata.sol';\n\ncontract ERC721Connector is ERC721Metadata {\n\n    // we deploy connector right away\n    // we want to metadata infor over\n\n    constructor(string memory name, string memory symbol) ERC721Metadata(name, symbol){\n        \n    }\n\n}",
  "sourcePath": "/Users/shahadath/projects/web3/blockchain/nft-marketplace-starter-kit/src/contracts/ERC721Connector.sol",
  "compiler": {
    "name": "solc",
    "version": "0.8.15+commit.e14f2714.Emscripten.clang"
  },
  "schemaVersion": "3.4.7",
  "updatedAt": "2022-06-27T16:22:07.755Z",
  "devdoc": {
    "kind": "dev",
    "methods": {},
    "version": 1
  },
  "userdoc": {
    "kind": "user",
    "methods": {},
    "version": 1
  }
}