{
  "contractName": "ERC721Metadata",
  "abi": [
    {
      "inputs": [
        {
          "internalType": "string",
          "name": "named",
          "type": "string"
        },
        {
          "internalType": "string",
          "name": "symbolified",
          "type": "string"
        }
      ],
      "stateMutability": "nonpayable",
      "type": "constructor"
    },
    {
      "inputs": [
        {
          "internalType": "bytes4",
          "name": "interfaceID",
          "type": "bytes4"
        }
      ],
      "name": "supportsInterface",
      "outputs": [
        {
          "internalType": "bool",
          "name": "",
          "type": "bool"
        }
      ],
      "stateMutability": "view",
      "type": "function"
    },
    {
      "inputs": [],
      "name": "name",
      "outputs": [
        {
          "internalType": "string",
          "name": "",
          "type": "string"
        }
      ],
      "stateMutability": "view",
      "type": "function"
    },
    {
      "inputs": [],
      "name": "symbol",
      "outputs": [
        {
          "internalType": "string",
          "name": "",
          "type": "string"
        }
      ],
      "stateMutability": "view",
      "type": "function"
    }
  ],
  "bytecode": "0x60806040523480156200001157600080fd5b5060405162000bf338038062000bf383398181016040528101906200003791906200035b565b620000687f01ffc9a7a5cef8baa21ed3c5c0d7e23accb804b619e9333b597f47a0d84076e2620000e760201b60201c565b620000bb7f13b182f4c0e5b2efbac0efe6cf6d756c8b89f4b79c5707a043ed9ea740574ee97f7feaf19471f34a12a7eaf32d5f3090aa2260ea8624dc8a138e74e0bf0f62307618620000e760201b60201c565b8160019081620000cc91906200062b565b508060029081620000de91906200062b565b50505062000795565b63ffffffff60e01b817bffffffffffffffffffffffffffffffffffffffffffffffffffffffff19160362000152576040517f08c379a0000000000000000000000000000000000000000000000000000000008152600401620001499062000773565b60405180910390fd5b6001600080837bffffffffffffffffffffffffffffffffffffffffffffffffffffffff19167bffffffffffffffffffffffffffffffffffffffffffffffffffffffff1916815260200190815260200160002060006101000a81548160ff02191690831515021790555050565b6000604051905090565b600080fd5b600080fd5b600080fd5b600080fd5b6000601f19601f8301169050919050565b7f4e487b7100000000000000000000000000000000000000000000000000000000600052604160045260246000fd5b6200022782620001dc565b810181811067ffffffffffffffff82111715620002495762000248620001ed565b5b80604052505050565b60006200025e620001be565b90506200026c82826200021c565b919050565b600067ffffffffffffffff8211156200028f576200028e620001ed565b5b6200029a82620001dc565b9050602081019050919050565b60005b83811015620002c7578082015181840152602081019050620002aa565b83811115620002d7576000848401525b50505050565b6000620002f4620002ee8462000271565b62000252565b905082815260208101848484011115620003135762000312620001d7565b5b62000320848285620002a7565b509392505050565b600082601f83011262000340576200033f620001d2565b5b815162000352848260208601620002dd565b91505092915050565b60008060408385031215620003755762000374620001c8565b5b600083015167ffffffffffffffff811115620003965762000395620001cd565b5b620003a48582860162000328565b925050602083015167ffffffffffffffff811115620003c857620003c7620001cd565b5b620003d68582860162000328565b9150509250929050565b600081519050919050565b7f4e487b7100000000000000000000000000000000000000000000000000000000600052602260045260246000fd5b600060028204905060018216806200043357607f821691505b602082108103620004495762000448620003eb565b5b50919050565b60008190508160005260206000209050919050565b60006020601f8301049050919050565b600082821b905092915050565b600060088302620004b37fffffffffffffffffffffffffffffffffffffffffffffffffffffffffffffffff8262000474565b620004bf868362000474565b95508019841693508086168417925050509392505050565b6000819050919050565b6000819050919050565b60006200050c620005066200050084620004d7565b620004e1565b620004d7565b9050919050565b6000819050919050565b6200052883620004eb565b62000540620005378262000513565b84845462000481565b825550505050565b600090565b6200055762000548565b620005648184846200051d565b505050565b5b818110156200058c57620005806000826200054d565b6001810190506200056a565b5050565b601f821115620005db57620005a5816200044f565b620005b08462000464565b81016020851015620005c0578190505b620005d8620005cf8562000464565b83018262000569565b50505b505050565b600082821c905092915050565b60006200060060001984600802620005e0565b1980831691505092915050565b60006200061b8383620005ed565b9150826002028217905092915050565b6200063682620003e0565b67ffffffffffffffff811115620006525762000651620001ed565b5b6200065e82546200041a565b6200066b82828562000590565b600060209050601f831160018114620006a357600084156200068e578287015190505b6200069a85826200060d565b8655506200070a565b601f198416620006b3866200044f565b60005b82811015620006dd57848901518255600182019150602085019450602081019050620006b6565b86831015620006fd5784890151620006f9601f891682620005ed565b8355505b6001600288020188555050505b505050505050565b600082825260208201905092915050565b7f496e76616c696420696e74657266616365207265717565737400000000000000600082015250565b60006200075b60198362000712565b9150620007688262000723565b602082019050919050565b600060208201905081810360008301526200078e816200074c565b9050919050565b61044e80620007a56000396000f3fe608060405234801561001057600080fd5b50600436106100415760003560e01c806301ffc9a71461004657806306fdde031461007657806395d89b4114610094575b600080fd5b610060600480360381019061005b919061029a565b6100b2565b60405161006d91906102e2565b60405180910390f35b61007e610119565b60405161008b9190610396565b60405180910390f35b61009c6101ab565b6040516100a99190610396565b60405180910390f35b6000806000837bffffffffffffffffffffffffffffffffffffffffffffffffffffffff19167bffffffffffffffffffffffffffffffffffffffffffffffffffffffff1916815260200190815260200160002060009054906101000a900460ff169050919050565b606060018054610128906103e7565b80601f0160208091040260200160405190810160405280929190818152602001828054610154906103e7565b80156101a15780601f10610176576101008083540402835291602001916101a1565b820191906000526020600020905b81548152906001019060200180831161018457829003601f168201915b5050505050905090565b6060600280546101ba906103e7565b80601f01602080910402602001604051908101604052809291908181526020018280546101e6906103e7565b80156102335780601f1061020857610100808354040283529160200191610233565b820191906000526020600020905b81548152906001019060200180831161021657829003601f168201915b5050505050905090565b600080fd5b60007fffffffff0000000000000000000000000000000000000000000000000000000082169050919050565b61027781610242565b811461028257600080fd5b50565b6000813590506102948161026e565b92915050565b6000602082840312156102b0576102af61023d565b5b60006102be84828501610285565b91505092915050565b60008115159050919050565b6102dc816102c7565b82525050565b60006020820190506102f760008301846102d3565b92915050565b600081519050919050565b600082825260208201905092915050565b60005b8381101561033757808201518184015260208101905061031c565b83811115610346576000848401525b50505050565b6000601f19601f8301169050919050565b6000610368826102fd565b6103728185610308565b9350610382818560208601610319565b61038b8161034c565b840191505092915050565b600060208201905081810360008301526103b0818461035d565b905092915050565b7f4e487b7100000000000000000000000000000000000000000000000000000000600052602260045260246000fd5b600060028204905060018216806103ff57607f821691505b602082108103610412576104116103b8565b5b5091905056fea2646970667358221220954cf40542a8d3c45fb8d695393e14efe8df787455645f5475868dda80477f3564736f6c634300080f0033",
  "immutableReferences": {},
  "source": "// SPDX-License-Identifier: MIT\npragma solidity >=0.4.22 <0.9.0;\n\nimport \"./interfaces/IERC721Metadata.sol\";\nimport \"./ERC165.sol\";\n\ncontract ERC721Metadata is ERC165, IERC721Metadata {\n    string private _name;\n    string private _symbol;\n\n    constructor(string memory named, string memory symbolified) {\n        _registerInterface(\n            bytes4(keccak256(\"name(bytes4)\") ^ keccak256(\"symbol(bytes4)\"))\n        );\n\n        _name = named;\n        _symbol = symbolified;\n    }\n\n    function name() external view override returns (string memory) {\n        return _name;\n    }\n\n    function symbol() external view override returns (string memory) {\n        return _symbol;\n    }\n}\n",
  "sourcePath": "/Users/shahadath/projects/web3/blockchain/nft-marketplace-starter-kit/src/contracts/ERC721Metadata.sol",
  "compiler": {
    "name": "solc",
    "version": "0.8.15+commit.e14f2714.Emscripten.clang"
  },
  "schemaVersion": "3.4.7",
  "updatedAt": "2022-07-12T11:37:42.777Z",
  "devdoc": {
    "kind": "dev",
    "methods": {
      "supportsInterface(bytes4)": {
        "details": "Interface identification is specified in ERC-165. This function  uses less than 30,000 gas.",
        "params": {
          "interfaceID": "The interface identifier, as specified in ERC-165"
        },
        "returns": {
          "_0": "`true` if the contract implements `interfaceID` and  `interfaceID` is not 0xffffffff, `false` otherwise"
        }
      }
    },
    "version": 1
  },
  "userdoc": {
    "kind": "user",
    "methods": {
      "supportsInterface(bytes4)": {
        "notice": "Query if a contract implements an interface"
      }
    },
    "version": 1
  }
}