{
  "contractName": "Kryptobird",
  "abi": [
    {
      "inputs": [],
      "stateMutability": "nonpayable",
      "type": "constructor"
    },
    {
      "inputs": [],
      "name": "name",
      "outputs": [
        {
          "internalType": "string",
          "name": "",
          "type": "string"
        }
      ],
      "stateMutability": "view",
      "type": "function",
      "constant": true
    },
    {
      "inputs": [],
      "name": "symbol",
      "outputs": [
        {
          "internalType": "string",
          "name": "",
          "type": "string"
        }
      ],
      "stateMutability": "view",
      "type": "function",
      "constant": true
    }
  ],
  "bytecode": "0x608060405234801561001057600080fd5b506040518060400160405280600a81526020017f4b727970746f62697264000000000000000000000000000000000000000000008152506000908161005591906102f0565b506040518060400160405280600681526020017f4b424952445a00000000000000000000000000000000000000000000000000008152506001908161009a91906102f0565b506103c2565b600081519050919050565b7f4e487b7100000000000000000000000000000000000000000000000000000000600052604160045260246000fd5b7f4e487b7100000000000000000000000000000000000000000000000000000000600052602260045260246000fd5b6000600282049050600182168061012157607f821691505b602082108103610134576101336100da565b5b50919050565b60008190508160005260206000209050919050565b60006020601f8301049050919050565b600082821b905092915050565b60006008830261019c7fffffffffffffffffffffffffffffffffffffffffffffffffffffffffffffffff8261015f565b6101a6868361015f565b95508019841693508086168417925050509392505050565b6000819050919050565b6000819050919050565b60006101ed6101e86101e3846101be565b6101c8565b6101be565b9050919050565b6000819050919050565b610207836101d2565b61021b610213826101f4565b84845461016c565b825550505050565b600090565b610230610223565b61023b8184846101fe565b505050565b5b8181101561025f57610254600082610228565b600181019050610241565b5050565b601f8211156102a4576102758161013a565b61027e8461014f565b8101602085101561028d578190505b6102a16102998561014f565b830182610240565b50505b505050565b600082821c905092915050565b60006102c7600019846008026102a9565b1980831691505092915050565b60006102e083836102b6565b9150826002028217905092915050565b6102f9826100a0565b67ffffffffffffffff811115610312576103116100ab565b5b61031c8254610109565b610327828285610263565b600060209050601f83116001811461035a5760008415610348578287015190505b61035285826102d4565b8655506103ba565b601f1984166103688661013a565b60005b828110156103905784890151825560018201915060208501945060208101905061036b565b868310156103ad57848901516103a9601f8916826102b6565b8355505b6001600288020188555050505b505050505050565b6102e4806103d16000396000f3fe608060405234801561001057600080fd5b50600436106100365760003560e01c806306fdde031461003b57806395d89b4114610059575b600080fd5b610043610077565b604051610050919061022c565b60405180910390f35b610061610105565b60405161006e919061022c565b60405180910390f35b600080546100849061027d565b80601f01602080910402602001604051908101604052809291908181526020018280546100b09061027d565b80156100fd5780601f106100d2576101008083540402835291602001916100fd565b820191906000526020600020905b8154815290600101906020018083116100e057829003601f168201915b505050505081565b600180546101129061027d565b80601f016020809104026020016040519081016040528092919081815260200182805461013e9061027d565b801561018b5780601f106101605761010080835404028352916020019161018b565b820191906000526020600020905b81548152906001019060200180831161016e57829003601f168201915b505050505081565b600081519050919050565b600082825260208201905092915050565b60005b838110156101cd5780820151818401526020810190506101b2565b838111156101dc576000848401525b50505050565b6000601f19601f8301169050919050565b60006101fe82610193565b610208818561019e565b93506102188185602086016101af565b610221816101e2565b840191505092915050565b6000602082019050818103600083015261024681846101f3565b905092915050565b7f4e487b7100000000000000000000000000000000000000000000000000000000600052602260045260246000fd5b6000600282049050600182168061029557607f821691505b6020821081036102a8576102a761024e565b5b5091905056fea26469706673582212203b4fb1d608e66c543176fe7cb3fc204ca803eb08ebf2f473ea2a032db5c8489764736f6c634300080f0033",
  "immutableReferences": {},
  "source": "// SPDX-License-Identifier: MIT\npragma solidity >=0.4.22 <0.9.0;\n\ncontract Kryptobird {\n    string public name;\n    string public symbol;\n\n    constructor (){\n        name = 'Kryptobird';\n        symbol = \"KBIRDZ\";\n    }\n}",
  "sourcePath": "/Users/shahadath/projects/web3/blockchain/nft-marketplace-starter-kit/src/contracts/KryptoBirdz.sol",
  "compiler": {
    "name": "solc",
    "version": "0.8.15+commit.e14f2714.Emscripten.clang"
  },
  "schemaVersion": "3.4.7",
  "updatedAt": "2022-06-26T11:49:03.251Z",
  "networkType": "ethereum",
  "devdoc": {
    "kind": "dev",
    "methods": {},
    "version": 1
  },
  "userdoc": {
    "kind": "user",
    "methods": {},
    "version": 1
  }
}